:020000040800F2
:1000000000280020510C0008ED0B0008F50B00083B
:10001000FD0B0008050C00080D0C00080000000096
:10002000000000000000000000000000150C0008A7
:10003000210C0008000000002D0C0008390C0008FD
:10004000990C0008990C0008990C0008990C0008FC
:10005000990C0008990C0008990C0008990C0008EC
:10006000990C0008990C0008990C0008990C0008DC
:10007000990C0008990C0008990C0008990C0008CC
:10008000990C0008990C0008990C0008990C0008BC
:10009000990C0008990C0008990C0008990C0008AC
:1000A000990C0008990C0008990C0008990C00089C
:1000B000990C0008990C000800000000990C000839
:1000C000990C00080000000000000000990C0008D6
:1000D00000000000990C0008990C000800000000C6
:1000E000990C0008990C0008990C00080000000009
:1000F0000000000000000000000000000000000000
:0C01000000000000000000005FF808F1A3
:10010C0010B5054C237833B9044B13B10448AFF345
:10011C0000800123237010BD0C00002000000000A3
:10012C00AC1A000808B5034B1BB103490348AFF3E5
:10013C00008008BD0000000010000020AC1A000870
:10014C0080B582B000AF78607B68002B23D1002291
:10015C000121C24801F082F800220221BF4801F0BF
:10016C007DF800220421BD4801F078F80022082116
:10017C00BA4801F073F800221021B84801F06EF86B
:10018C0000222021B54801F069F801224021B34832
:10019C0001F064F85DE17B68012B23D10122012180
:1001AC00AE4801F05BF800220221AC4801F056F891
:1001BC0000220421A94801F051F801220821A74886
:1001CC0001F04CF801221021A44801F047F801225B
:1001DC002021A24801F042F8012240219F4801F061
:1001EC003DF836E17B68022B23D1002201219B488C
:1001FC0001F034F800220221984801F02FF8012276
:10020C000421964801F02AF800220821934801F0B5
:10021C0025F800221021914801F020F8012220211C
:10022C008E4801F01BF8002240218C4801F016F892
:10023C000FE17B68032B23D100220121874801F0B9
:10024C000DF800220221854801F008F80022042153
:10025C00824801F003F800220821804800F0FEFFDC
:10026C00012210217D4800F0F9FF012220217B485A
:10027C0000F0F4FF00224021784800F0EFFFE8E0A6
:10028C007B68042B23D101220121744800F0E6FF86
:10029C0000220221714800F0E1FF002204216F4886
:1002AC0000F0DCFF012208216C4800F0D7FF01228E
:1002BC0010216A4800F0D2FF00222021674800F08C
:1002CC00CDFF00224021654800F0C8FFC1E07B68EB
:1002DC00052B23D100220121604800F0BFFF012231
:1002EC0002215E4800F0BAFF002204215B4800F0B6
:1002FC00B5FF00220821594800F0B0FF012210215F
:10030C00564800F0ABFF00222021544800F0A6FF15
:10031C0000224021514800F0A1FF9AE07B68062B97
:10032C0023D1002201214D4800F098FF0122022127
:10033C004A4800F093FF00220421484800F08EFF49
:10034C0000220821454800F089FF00221021434873
:10035C0000F084FF00222021404800F07FFF0022A3
:10036C0040213E4800F07AFF73E07B68072B23D1D5
:10037C0000220121394800F071FF00220221374888
:10038C0000F06CFF00220421344800F067FF0122CA
:10039C000821324800F062FF012210212F4800F0A2
:1003AC005DFF012220212D4800F058FF0122402141
:1003BC002A4800F053FF4CE07B68082B23D1002225
:1003CC000121264800F04AFF00220221234800F0B8
:1003DC0045FF00220421214800F040FF00220821A3
:1003EC001E4800F03BFF002210211C4800F036FF95
:1003FC0000222021194800F031FF0022402117482B
:10040C0000F02CFF25E07B68092B22D10022012172
:10041C00124800F023FF00220221104800F01EFFBA
:10042C00002204210D4800F019FF002208210B487E
:10043C0000F014FF01221021084800F00FFF0022E9
:10044C002021064800F00AFF00224021034800F05A
:10045C0005FF00BF0837BD4680BD00BF0008014046
:10046C0080B582B000AF78607B68002B2AD1002267
:10047C004FF48071CB4800F0F1FE00224FF4007174
:10048C00C84800F0EBFE00224FF48061C54800F034
:10049C00E5FE00224FF40061C24800F0DFFE0022AE
:1004AC004FF48051BF4800F0D9FE00224FF40051A8
:1004BC00BC4800F0D3FE01224FF48041B94800F053
:1004CC00CDFE9EE17B68012B2AD101224FF4807175
:1004DC00B44800F0C3FE00224FF40071B14800F0A4
:1004EC00BDFE00224FF48061AE4800F0B7FE012241
:1004FC004FF40061AB4800F0B1FE01224FF4805183
:10050C00A84800F0ABFE01224FF40051A54800F0C2
:10051C00A5FE01224FF48041A24800F09FFE70E13D
:10052C007B68022B2AD100224FF480719D4800F089
:10053C0095FE00224FF400719A4800F08FFE0122C4
:10054C004FF48061974800F089FE00224FF400615F
:10055C00944800F083FE00224FF48051914800F043
:10056C007DFE01224FF400518E4800F077FE0022F0
:10057C004FF480418B4800F071FE42E17B68032B05
:10058C002AD100224FF48071864800F067FE0022C9
:10059C004FF40071834800F061FE00224FF480613B
:1005AC00804800F05BFE00224FF400617D4800F0B3
:1005BC0055FE01224FF480517A4800F04FFE012283
:1005CC004FF40051774800F049FE00224FF480416F
:1005DC00744800F043FE14E17B68042B2AD10122FD
:1005EC004FF480716F4800F039FE00224FF4007117
:1005FC006C4800F033FE00224FF48061694800F033
:10060C002DFE01224FF40061664800F027FE012206
:10061C004FF48051634800F021FE00224FF400514A
:10062C00604800F01BFE00224FF480415D4800F052
:10063C0015FEE6E07B68052B2AD100224FF4807171
:10064C00584800F00BFE01224FF40071554800F0A1
:10065C0005FE00224FF48061524800F0FFFD00229D
:10066C004FF400614F4800F0F9FD01224FF4805126
:10067C004C4800F0F3FD00224FF40051494800F0C3
:10068C00EDFD00224FF48041464800F0E7FDB8E054
:10069C007B68062B2AD100224FF48071414800F070
:1006AC00DDFD01224FF400713E4800F0D7FD002221
:1006BC004FF480613B4800F0D1FD00224FF4006103
:1006CC00384800F0CBFD00224FF48051354800F043
:1006DC00C5FD00224FF40051324800F0BFFD00224E
:1006EC004FF480412F4800F0B9FD8AE07B68072B5E
:1006FC002AD100224FF480712A4800F0AFFD00226D
:10070C004FF40071274800F0A9FD00224FF48061DE
:10071C00244800F0A3FD01224FF40061214800F0B1
:10072C009DFD01224FF480511E4800F097FD0122DF
:10073C004FF400511B4800F091FD01224FF4804111
:10074C00184800F08BFD5CE07B68082B2CD1002254
:10075C004FF48071134800F081FD00224FF40071BA
:10076C00104800F07BFD00224FF480610D4800F032
:10077C0075FD00224FF400610A4800F06FFD002265
:10078C004FF48051074800F069FD00224FF40051EE
:10079C00044800F063FD00224FF48041014800F052
:1007AC005DFD2EE0000801407B68092B29D1002259
:1007BC004FF48071154800F051FD00224FF4007188
:1007CC00124800F04BFD00224FF480610F4800F0FE
:1007DC0045FD00224FF400610C4800F03FFD012262
:1007EC004FF48051094800F039FD00224FF40051BC
:1007FC00064800F033FD00224FF48041034800F01E
:10080C002DFD00BF0837BD4680BD00BF000801406C
:10081C0080B584B000AF00F03BFA00F027F900F08F
:10082C0061F90023FB600523BB6003237B60FB683D
:10083C00032B00F2148101A252F823F0590800088E
:10084C00030900085D090008DB09000801220121E9
:10085C00854800F003FD01224021834800F0FEFC96
:10086C0001222021804800F0F9FC01224FF40061A4
:10087C007D4800F0F3FC002204217B4800F0EEFCE4
:10088C0000220221784800F0E9FC00224FF480712C
:10089C00754800F0E3FC00228021734800F0DEFC78
:1008AC0000220821704800F0D9FC002210216E486B
:1008BC0000F0D4FC00224FF400716B4800F0CEFC29
:1008CC0000224FF48061684800F0C8FCB868FFF75C
:1008DC0037FC7868FFF7C4FDBB68013BBB607B68E5
:1008EC00013B7B607B68002B00F3B2800123FB6033
:1008FC0002237B60ACE0002220215B4800F0AEFCC0
:10090C0000224FF40061584800F0A8FC012210218D
:10091C00554800F0A3FC01224FF48061524800F0CE
:10092C009DFCB868FFF70CFC7868FFF799FDBB6875
:10093C00013BBB607B68013B7B60BB68002B00F319
:10094C0089800223FB600323BB6005237B6081E06D
:10095C0000220121444800F081FC00224021424841
:10096C0000F07CFC002210213F4800F077FC0022B4
:10097C004FF480613C4800F071FC012208213A4898
:10098C0000F06CFC01224FF40071374800F066FC5B
:10099C0001220421344800F061FC01224FF48071E3
:1009AC00314800F05BFCB868FFF7CAFB7868FFF7CA
:1009BC0057FDBB68013BBB607B68013B7B60BB6840
:1009CC00002B49DC0323FB600223BB6044E00022C4
:1009DC000421254800F042FC00224FF4807122488B
:1009EC0000F03CFC002208211F4800F037FC0022DC
:1009FC004FF400711C4800F031FC012202211A480E
:100A0C0000F02CFC01228021174800F027FC012269
:100A1C000821154800F022FC01224FF40071124805
:100A2C0000F01CFCB868FFF78BFB7868FFF718FD2B
:100A3C00BB68013BBB607B68013B7B607B68002B28
:100A4C000CDC0023FB600523BB6003237B6005E00B
:100A5C0000BF04E000BF02E000BF00E000BF4FF4A5
:100A6C007A7000F077F9E2E6000C014080B590B0A6
:100A7C0000AF07F1180328220021184600F0E4FF0C
:100A8C003B1D00221A605A609A60DA601A610223D8
:100A9C00BB610123BB621023FB6200237B6307F164
:100AAC001803184600F0F2FB0346002B01D000F0AF
:100ABC006FF80F237B600023BB600023FB600023D7
:100ACC003B6100237B613B1D0021184600F060FE5A
:100ADC000346002B01D000F05BF800BF4037BD4649
:100AEC0080BD000080B586B000AF07F1080300227E
:100AFC001A605A609A60DA60224B9B69214A43F073
:100B0C00040393611F4B9B6903F004037B607B68B8
:100B1C001C4B9B691B4A43F008039361194B9B695F
:100B2C0003F008033B603B68002247F67F711648D0
:100B3C0000F094FB002240F6FF71144800F08EFB8D
:100B4C0047F67F73BB600123FB6000233B610223EC
:100B5C007B6107F1080319460B4800F003FA40F6D5
:100B6C00FF73BB600123FB6000233B6102237B61AD
:100B7C0007F108031946054800F0F4F900BF1837CF
:100B8C00BD4680BD0010024000080140000C014031
:100B9C0080B400AF72B600BF00BFFDE780B483B075
:100BAC0000AF0E4B9B690D4A43F0010393610B4B55
:100BBC009B6903F001037B607B68084BDB69074A88
:100BCC0043F08053D361054BDB6903F080533B60EA
:100BDC003B6800BF0C37BD4680BC7047001002401C
:100BEC0080B400AF00BFFDE780B400AF00BFFDE7ED
:100BFC0080B400AF00BFFDE780B400AF00BFFDE7DD
:100C0C0080B400AF00BFFDE780B400AF00BFBD46AD
:100C1C0080BC704780B400AF00BFBD4680BC70473D
:100C2C0080B400AF00BFBD4680BC704780B500AF3C
:100C3C0000F074F800BF80BD80B400AF00BFBD46AB
:100C4C0080BC7047FFF7F8FF0B480C490C4A002397
:100C5C0002E0D458C4500433C4188C42F9D3094A66
:100C6C00094C002301E013600432A242FBD300F0D4
:100C7C00F3FEFFF7CDFD7047000000200C000020B4
:100C8C00F01A00080C0000202C000020FEE70000E9
:100C9C0080B500AF084B1B68074A43F01003136084
:100CAC00032000F02BF90F2000F008F8FFF776FF77
:100CBC000023184680BD00BF0020024080B582B0E2
:100CCC0000AF7860124B1A68124B1B7819464FF420
:100CDC007A73B3FBF1F3B2FBF3F3184600F035F97A
:100CEC000346002B01D001230EE07B680F2B0AD8A2
:100CFC00002279684FF0FF3000F00BF9064A7B6850
:100D0C001360002300E0012318460837BD4680BD60
:100D1C0000000020080000200400002080B400AF78
:100D2C00054B1B781A46054B1B681344034A13608A
:100D3C0000BFBD4680BC7047080000202800002082
:100D4C0080B400AF024B1B681846BD4680BC704790
:100D5C002800002080B584B000AF7860FFF7F0FF6A
:100D6C00B8607B68FB60FB68B3F1FF3F05D00A4BB2
:100D7C001B781A46FB681344FB6000BFFFF7E0FFCB
:100D8C000246BB68D31AFA689A42F7D800BF00BF74
:100D9C001037BD4680BD00BF0800002080B485B070
:100DAC0000AF78607B6803F00703FB600C4BDB68DB
:100DBC00BB60BA684FF6FF031340BB60FB681A02B6
:100DCC00BB68134343F0BF6343F40033BB60044A76
:100DDC00BB68D36000BF1437BD4680BC704700BFF2
:100DEC0000ED00E080B400AF044BDB681B0A03F09D
:100DFC0007031846BD4680BC704700BF00ED00E0FD
:100E0C0080B483B000AF03463960FB7197F90730AB
:100E1C00002B0ADB3B68DAB20C4997F90730120158
:100E2C00D2B20B4483F800230AE03B68DAB20849DB
:100E3C00FB7903F00F03043B1201D2B20B441A7678
:100E4C0000BF0C37BD4680BC704700BF00E100E01E
:100E5C0000ED00E080B489B000AFF860B9607A6052
:100E6C00FB6803F00703FB61FB69C3F10703042B69
:100E7C0028BF0423BB61FB690433062B02D9FB6931
:100E8C00033B00E000237B614FF0FF32BB6902FAA9
:100E9C0003F3DA43BB681A407B699A404FF0FF3189
:100EAC007B6901FA03F3D9437B680B401343184663
:100EBC002437BD4680BC704780B582B000AF7860E7
:100ECC007B68013BB3F1807F01D301230FE00A4A19
:100EDC007B68013B53600F214FF0FF30FFF790FF11
:100EEC00054B00229A60044B07221A600023184617
:100EFC000837BD4680BD00BF10E000E080B582B071
:100F0C0000AF78607868FFF749FF00BF0837BD462F
:100F1C0080BD80B586B000AF0346B9607A60FB73C4
:100F2C0000237B61FFF75EFF78617A68B9687869A6
:100F3C00FFF790FF024697F90F3011461846FFF75E
:100F4C005FFF00BF1837BD4680BD80B582B000AFD3
:100F5C0078607868FFF7B0FF034618460837BD463F
:100F6C0080BD000080B48BB000AF78603960002386
:100F7C007B6200233B6261E101227B6A02FA03F38C
:100F8C00FB613B681B68FA691340BB61BA69FB697A
:100F9C009A4240F050813B685B68974A93425ED01E
:100FAC00954A934275D8954A934258D0934A9342A6
:100FBC006FD8934A934252D0914A934269D8914A3E
:100FCC0093424CD08F4A934263D88F4A934246D077
:100FDC008D4A93425DD8122B2AD8122B59D801A2D4
:100FEC0052F823F06B100008451000085710000849
:100FFC00991000089F1000089F1000089F1000080F
:10100C009F1000089F1000089F1000089F100008F8
:10101C009F1000089F1000089F1000089F100008E8
:10102C009F1000089F1000084D1000086110000868
:10103C00764A934213D02CE03B68DB683B6229E094
:10104C003B68DB6804333B6224E03B68DB680833B5
:10105C003B621FE03B68DB680C333B621AE03B6889
:10106C009B68002B02D104233B6213E03B689B6816
:10107C00012B05D108233B627B68FA691A6109E0F0
:10108C0008233B627B68FA695A6103E000233B62E8
:10109C0000E000BFBB69FF2B01D87B6801E07B68D7
:1010AC0004337B61BB69FF2B02D87B6A9B0002E097
:1010BC007B6A083B9B003B617B691A680F213B698B
:1010CC0001FA03F3DB431A40396A3B6901FA03F373
:1010DC001A437B691A603B685B6803F08053002BF2
:1010EC0000F0A9804A4B9B69494A43F00103936184
:1010FC00474B9B6903F00103BB60BB68454A7B6AA5
:10110C009B08023352F82330FB607B6A03F0030325
:10111C009B000F2202FA03F3DB43FA681340FB60D7
:10112C007B683D4A93420DD07B683C4A934207D082
:10113C007B683B4A934201D1022304E0032302E083
:10114C00012300E000237A6A02F00302920093402C
:10115C00FA681343FB602F497B6A9B080233FA68D9
:10116C0041F823203B685B6803F48013002B06D006
:10117C002C4B9A682B49BB6913438B6006E0294BB7
:10118C009A68BB69DB43274913408B603B685B68FB
:10119C0003F40013002B06D0224BDA682149BB69FB
:1011AC001343CB6006E01F4BDA68BB69DB431D4978
:1011BC001340CB603B685B6803F40033002B06D014
:1011CC00184B5A681749BB6913434B6006E0154B23
:1011DC005A68BB69DB43134913404B603B685B683F
:1011EC0003F48033002B1FD00E4B1A680D49BB69DA
:1011FC0013430B601FE000BF0000321000003110E1
:10120C00000022100000211000001210000011102C
:10121C00001002400000014000080140000C014099
:10122C0000100140000401400B4B1A68BB69DB4302
:10123C00094913400B607B6A01337B623B681A6877
:10124C007B6A22FA03F3002B7FF496AE00BF00BF3B
:10125C002C37BD4680BC70470004014080B483B07D
:10126C0000AF78600B467B8013467B707B78002B3D
:10127C0003D07A887B681A6103E07B881A047B6848
:10128C001A6100BF0C37BD4680BC704780B586B074
:10129C0000AF78607B68002B01D1012372E27B6880
:1012AC001B6803F00103002B00F08780924B5B68F6
:1012BC0003F00C03042B0CD08F4B5B6803F00C0376
:1012CC00082B12D18C4B5B6803F48033B3F5803F51
:1012DC000BD1894B1B6803F40033002B6CD07B685B
:1012EC005B68002B68D101234CE27B685B68B3F52B
:1012FC00803F06D1804B1B687F4A43F480331360D8
:10130C002EE07B685B68002B0CD17B4B1B687A4A08
:10131C0023F480331360784B1B68774A23F48023C3
:10132C0013601DE07B685B68B3F5A02F0CD1724B8A
:10133C001B68714A43F4802313606F4B1B686E4A21
:10134C0043F4803313600BE06B4B1B686A4A23F445
:10135C0080331360684B1B68674A23F48023136047
:10136C007B685B68002B13D0FFF7EAFC386108E060
:10137C00FFF7E6FC02463B69D31A642B01D9032321
:10138C0000E25D4B1B6803F40033002BF0D014E03B
:10139C00FFF7D6FC386108E0FFF7D2FC02463B6948
:1013AC00D31A642B01D90323ECE1534B1B6803F4D0
:1013BC000033002BF0D100E000BF7B681B6803F00A
:1013CC000203002B63D04C4B5B6803F00C03002B27
:1013DC000BD0494B5B6803F00C03082B1CD1464B1C
:1013EC005B6803F48033002B16D1434B1B6803F06E
:1013FC000203002B05D07B681B69012B01D0012354
:10140C00C0E13D4B1B6823F0F8027B685B69DB0095
:10141C00394913430B603AE07B681B69002B20D0E1
:10142C00364B01221A60FFF78BFC386108E0FFF79E
:10143C0087FC02463B69D31A022B01D90323A1E195
:10144C002D4B1B6803F00203002BF0D02A4B1B68BA
:10145C0023F0F8027B685B69DB00274913430B60C0
:10146C0015E0264B00221A60FFF76AFC386108E091
:10147C00FFF766FC02463B69D31A022B01D9032302
:10148C0080E11D4B1B6803F00203002BF0D17B683D
:10149C001B6803F00803002B3AD07B689B69002B78
:1014AC0019D0174B01221A60FFF74AFC386108E08B
:1014BC00FFF746FC02463B69D31A022B01D90323E2
:1014CC0060E10D4B5B6A03F00203002BF0D00120AE
:1014DC0000F09CFA1CE00A4B00221A60FFF730FC6B
:1014EC0038610FE0FFF72CFC02463B69D31A022B44
:1014FC0008D9032346E100BF00100240000042421D
:10150C0080044242924B5B6A03F00203002BE9D148
:10151C007B681B6803F00403002B00F0A6800023FB
:10152C00FB758B4BDB6903F08053002B0DD1884B83
:10153C00DB69874A43F08053D361854BDB6903F049
:10154C008053BB60BB680123FB75824B1B6803F4A3
:10155C008073002B18D17F4B1B687E4A43F4807339
:10156C001360FFF7EDFB386108E0FFF7E9FB02467B
:10157C003B69D31A642B01D9032303E1754B1B6818
:10158C0003F48073002BF0D07B68DB68012B06D151
:10159C006F4B1B6A6E4A43F0010313622DE07B68AC
:1015AC00DB68002B0CD16A4B1B6A694A23F00103E0
:1015BC001362674B1B6A664A23F0040313621CE038
:1015CC007B68DB68052B0CD1614B1B6A604A43F0CE
:1015DC00040313625E4B1B6A5D4A43F00103136202
:1015EC000BE05B4B1B6A5A4A23F001031362584B06
:1015FC001B6A574A23F0040313627B68DB68002BD9
:10160C0015D0FFF79DFB38610AE0FFF799FB024606
:10161C003B69D31A41F28832934201D90323B1E0DA
:10162C004B4B1B6A03F00203002BEED014E0FFF7C8
:10163C0087FB38610AE0FFF783FB02463B69D31A4C
:10164C0041F28832934201D903239BE0404B1B6A41
:10165C0003F00203002BEED1FB7D012B05D13C4B9B
:10166C00DB693B4A23F08053D3617B68DB69002B39
:10167C0000F08780364B5B6803F00C03082B61D0BD
:10168C007B68DB69022B46D1334B00221A60FFF7D3
:10169C0057FB386108E0FFF753FB02463B69D31A4E
:1016AC00022B01D903236DE0294B1B6803F0007357
:1016BC00002BF0D17B681B6AB3F5803F08D1244B1B
:1016CC005B6823F400327B689B68214913434B60B1
:1016DC001F4B5B6823F474127B68196A7B685B6A26
:1016EC000B431B4913434B601B4B01221A60FFF742
:1016FC0027FB386108E0FFF723FB02463B69D31A4E
:10170C00022B01D903233DE0114B1B6803F000733E
:10171C00002BF0D035E0104B00221A60FFF710FBC5
:10172C00386108E0FFF70CFB02463B69D31A022B29
:10173C0001D9032326E0064B1B6803F00073002B32
:10174C00F0D11EE07B68DB69012B07D1012319E086
:10175C000010024000700040600042420B4B5B687E
:10176C00FB60FB6803F480327B681B6A9A4206D1EB
:10177C00FB6803F470127B685B6A9A4201D0012308
:10178C0000E0002318461837BD4680BD001002400B
:10179C0080B584B000AF786039607B68002B01D1D4
:1017AC000123D0E06A4B1B6803F007033A689A42A6
:1017BC0010D9674B1B6823F0070265493B6813433C
:1017CC000B60634B1B6803F007033A689A4201D025
:1017DC000123B8E07B681B6803F00203002B20D0C8
:1017EC007B681B6803F00403002B05D0594B5B6826
:1017FC00584A43F4E06353607B681B6803F00803AA
:10180C00002B05D0534B5B68524A43F46053536032
:10181C00504B5B6823F0F0027B689B684D49134387
:10182C004B607B681B6803F00103002B40D07B6886
:10183C005B68012B07D1474B1B6803F40033002B6B
:10184C0015D101237FE07B685B68022B07D1414BEC
:10185C001B6803F00073002B09D1012373E03D4B8F
:10186C001B6803F00203002B01D101236BE0394B01
:10187C005B6823F003027B685B68364913434B605B
:10188C00FFF75EFAF8600AE0FFF75AFA0246FB68C7
:10189C00D31A41F28832934201D9032353E02D4BE2
:1018AC005B6803F00C027B685B689B009A42EBD18F
:1018BC00274B1B6803F007033A689A4210D2244B5B
:1018CC001B6823F0070222493B6813430B60204B33
:1018DC001B6803F007033A689A4201D0012332E0F7
:1018EC007B681B6803F00403002B08D0194B5B6862
:1018FC0023F4E0627B68DB68164913434B607B681A
:10190C001B6803F00803002B09D0124B5B6823F40F
:10191C0060527B681B69DB000E4913434B6000F07F
:10192C0021F802460B4B5B681B0903F00F030A49B5
:10193C00CB5C22FA03F3094A1360094B1B68184667
:10194C00FFF7BCF9002318461037BD4680BD00BF19
:10195C000020024000100240C41A000800000020C1
:10196C000400002080B487B000AF0023FB6000238C
:10197C00BB6000237B6100237B6000233B611E4B1B
:10198C005B68FB60FB6803F00C03042B02D0082B94
:10199C0003D027E0194B3B6127E0FB689B0C03F05D
:1019AC000F03174AD35C7B60FB6803F48033002B76
:1019BC0010D0114B5B685B0C03F00103114AD35C34
:1019CC00BB607B680D4A03FB02F2BB68B2FBF3F30E
:1019DC007B6104E07B680C4A02FB03F37B617B694F
:1019EC003B6102E0054B3B6100BF3B6918461C376D
:1019FC00BD4680BC704700BF0010024000127A0048
:101A0C00D41A0008E41A000800093D0080B485B01F
:101A1C0000AF78600A4B1B680A4AA2FB03235B0ADF
:101A2C007A6802FB03F3FB6000BFFB685A1EFA6086
:101A3C00002BF9D100BF00BF1437BD4680BC7047E6
:101A4C0000000020D34D621003460244934200D1A3
:101A5C00704703F8011BF9E770B500260C4D0D4CCF
:101A6C00641BA410A64209D100F01AF800260A4DF6
:101A7C000A4C641BA410A64205D170BD55F8043B5A
:101A8C0098470136EEE755F8043B98470136F2E7E4
:101A9C00E81A0008E81A0008E81A0008EC1A00080E
:101AAC00F8B500BFF8BC08BC9E467047F8B500BF3F
:081ABC00F8BC08BC9E4670470F
:101AC40000000000000000000102030406070809EA
:101AD40002030405060708090A0B0C0D0E0F10106B
:041AE40001020000FB
:041AE80031010008C0
:041AEC000D010008E0
:0C1AF00000127A0010000000010000004D
:0400000508000C5192
:00000001FF
